{
  "_format": "hh-sol-artifact-1",
  "contractName": "DegenToken",
  "sourceName": "contracts/DegenToken.sol",
  "abi": [
    {
      "inputs": [],
      "stateMutability": "nonpayable",
      "type": "constructor"
    },
    {
      "anonymous": false,
      "inputs": [
        {
          "indexed": true,
          "internalType": "address",
          "name": "owner",
          "type": "address"
        },
        {
          "indexed": true,
          "internalType": "address",
          "name": "spender",
          "type": "address"
        },
        {
          "indexed": false,
          "internalType": "uint256",
          "name": "value",
          "type": "uint256"
        }
      ],
      "name": "Approval",
      "type": "event"
    },
    {
      "anonymous": false,
      "inputs": [
        {
          "indexed": true,
          "internalType": "address",
          "name": "previousOwner",
          "type": "address"
        },
        {
          "indexed": true,
          "internalType": "address",
          "name": "newOwner",
          "type": "address"
        }
      ],
      "name": "OwnershipTransferred",
      "type": "event"
    },
    {
      "anonymous": false,
      "inputs": [
        {
          "indexed": true,
          "internalType": "address",
          "name": "from",
          "type": "address"
        },
        {
          "indexed": true,
          "internalType": "address",
          "name": "to",
          "type": "address"
        },
        {
          "indexed": false,
          "internalType": "uint256",
          "name": "value",
          "type": "uint256"
        }
      ],
      "name": "Transfer",
      "type": "event"
    },
    {
      "inputs": [
        {
          "internalType": "address",
          "name": "owner",
          "type": "address"
        },
        {
          "internalType": "address",
          "name": "spender",
          "type": "address"
        }
      ],
      "name": "allowance",
      "outputs": [
        {
          "internalType": "uint256",
          "name": "",
          "type": "uint256"
        }
      ],
      "stateMutability": "view",
      "type": "function"
    },
    {
      "inputs": [
        {
          "internalType": "address",
          "name": "spender",
          "type": "address"
        },
        {
          "internalType": "uint256",
          "name": "amount",
          "type": "uint256"
        }
      ],
      "name": "approve",
      "outputs": [
        {
          "internalType": "bool",
          "name": "",
          "type": "bool"
        }
      ],
      "stateMutability": "nonpayable",
      "type": "function"
    },
    {
      "inputs": [
        {
          "internalType": "address",
          "name": "account",
          "type": "address"
        }
      ],
      "name": "balanceOf",
      "outputs": [
        {
          "internalType": "uint256",
          "name": "",
          "type": "uint256"
        }
      ],
      "stateMutability": "view",
      "type": "function"
    },
    {
      "inputs": [
        {
          "internalType": "uint256",
          "name": "amount",
          "type": "uint256"
        }
      ],
      "name": "burn",
      "outputs": [],
      "stateMutability": "nonpayable",
      "type": "function"
    },
    {
      "inputs": [
        {
          "internalType": "address",
          "name": "account",
          "type": "address"
        },
        {
          "internalType": "uint256",
          "name": "amount",
          "type": "uint256"
        }
      ],
      "name": "burnFrom",
      "outputs": [],
      "stateMutability": "nonpayable",
      "type": "function"
    },
    {
      "inputs": [
        {
          "internalType": "uint256",
          "name": "amount",
          "type": "uint256"
        }
      ],
      "name": "burnToken",
      "outputs": [],
      "stateMutability": "nonpayable",
      "type": "function"
    },
    {
      "inputs": [],
      "name": "decimals",
      "outputs": [
        {
          "internalType": "uint8",
          "name": "",
          "type": "uint8"
        }
      ],
      "stateMutability": "view",
      "type": "function"
    },
    {
      "inputs": [
        {
          "internalType": "address",
          "name": "spender",
          "type": "address"
        },
        {
          "internalType": "uint256",
          "name": "subtractedValue",
          "type": "uint256"
        }
      ],
      "name": "decreaseAllowance",
      "outputs": [
        {
          "internalType": "bool",
          "name": "",
          "type": "bool"
        }
      ],
      "stateMutability": "nonpayable",
      "type": "function"
    },
    {
      "inputs": [],
      "name": "getDegenBalance",
      "outputs": [
        {
          "internalType": "uint256",
          "name": "",
          "type": "uint256"
        }
      ],
      "stateMutability": "view",
      "type": "function"
    },
    {
      "inputs": [
        {
          "internalType": "address",
          "name": "spender",
          "type": "address"
        },
        {
          "internalType": "uint256",
          "name": "addedValue",
          "type": "uint256"
        }
      ],
      "name": "increaseAllowance",
      "outputs": [
        {
          "internalType": "bool",
          "name": "",
          "type": "bool"
        }
      ],
      "stateMutability": "nonpayable",
      "type": "function"
    },
    {
      "inputs": [
        {
          "internalType": "address",
          "name": "to",
          "type": "address"
        },
        {
          "internalType": "uint256",
          "name": "amount",
          "type": "uint256"
        }
      ],
      "name": "mintDegen",
      "outputs": [],
      "stateMutability": "nonpayable",
      "type": "function"
    },
    {
      "inputs": [],
      "name": "name",
      "outputs": [
        {
          "internalType": "string",
          "name": "",
          "type": "string"
        }
      ],
      "stateMutability": "view",
      "type": "function"
    },
    {
      "inputs": [],
      "name": "owner",
      "outputs": [
        {
          "internalType": "address",
          "name": "",
          "type": "address"
        }
      ],
      "stateMutability": "view",
      "type": "function"
    },
    {
      "inputs": [
        {
          "internalType": "uint256",
          "name": "choice",
          "type": "uint256"
        }
      ],
      "name": "redeemTokens",
      "outputs": [],
      "stateMutability": "payable",
      "type": "function"
    },
    {
      "inputs": [],
      "name": "renounceOwnership",
      "outputs": [],
      "stateMutability": "nonpayable",
      "type": "function"
    },
    {
      "inputs": [],
      "name": "symbol",
      "outputs": [
        {
          "internalType": "string",
          "name": "",
          "type": "string"
        }
      ],
      "stateMutability": "view",
      "type": "function"
    },
    {
      "inputs": [],
      "name": "totalSupply",
      "outputs": [
        {
          "internalType": "uint256",
          "name": "",
          "type": "uint256"
        }
      ],
      "stateMutability": "view",
      "type": "function"
    },
    {
      "inputs": [
        {
          "internalType": "address",
          "name": "to",
          "type": "address"
        },
        {
          "internalType": "uint256",
          "name": "amount",
          "type": "uint256"
        }
      ],
      "name": "transfer",
      "outputs": [
        {
          "internalType": "bool",
          "name": "",
          "type": "bool"
        }
      ],
      "stateMutability": "nonpayable",
      "type": "function"
    },
    {
      "inputs": [
        {
          "internalType": "address",
          "name": "from",
          "type": "address"
        },
        {
          "internalType": "address",
          "name": "to",
          "type": "address"
        },
        {
          "internalType": "uint256",
          "name": "amount",
          "type": "uint256"
        }
      ],
      "name": "transferFrom",
      "outputs": [
        {
          "internalType": "bool",
          "name": "",
          "type": "bool"
        }
      ],
      "stateMutability": "nonpayable",
      "type": "function"
    },
    {
      "inputs": [
        {
          "internalType": "address",
          "name": "newOwner",
          "type": "address"
        }
      ],
      "name": "transferOwnership",
      "outputs": [],
      "stateMutability": "nonpayable",
      "type": "function"
    },
    {
      "inputs": [
        {
          "internalType": "address",
          "name": "_receiver",
          "type": "address"
        },
        {
          "internalType": "uint256",
          "name": "amount",
          "type": "uint256"
        }
      ],
      "name": "transferTokensTo",
      "outputs": [],
      "stateMutability": "nonpayable",
      "type": "function"
    },
    {
      "inputs": [],
      "name": "viewGameStore",
      "outputs": [
        {
          "internalType": "string[]",
          "name": "",
          "type": "string[]"
        }
      ],
      "stateMutability": "pure",
      "type": "function"
    }
  ],
  "bytecode": "0x60806040523480156200001157600080fd5b506040518060400160405280600581526020017f446567656e0000000000000000000000000000000000000000000000000000008152506040518060400160405280600381526020017f44474e000000000000000000000000000000000000000000000000000000000081525081600390816200008f91906200047a565b508060049081620000a191906200047a565b505050620000c4620000b86200013260201b60201c565b6200013a60201b60201c565b603260066000600181526020019081526020016000208190555060016006600060028152602001908152602001600020819055506064600660006003815260200190815260200160002081905550604b60066000600481526020019081526020016000208190555062000561565b600033905090565b6000600560009054906101000a900473ffffffffffffffffffffffffffffffffffffffff16905081600560006101000a81548173ffffffffffffffffffffffffffffffffffffffff021916908373ffffffffffffffffffffffffffffffffffffffff1602179055508173ffffffffffffffffffffffffffffffffffffffff168173ffffffffffffffffffffffffffffffffffffffff167f8be0079c531659141344cd1fd0a4f28419497f9722a3daafe3b4186f6b6457e060405160405180910390a35050565b600081519050919050565b7f4e487b7100000000000000000000000000000000000000000000000000000000600052604160045260246000fd5b7f4e487b7100000000000000000000000000000000000000000000000000000000600052602260045260246000fd5b600060028204905060018216806200028257607f821691505b6020821081036200029857620002976200023a565b5b50919050565b60008190508160005260206000209050919050565b60006020601f8301049050919050565b600082821b905092915050565b600060088302620003027fffffffffffffffffffffffffffffffffffffffffffffffffffffffffffffffff82620002c3565b6200030e8683620002c3565b95508019841693508086168417925050509392505050565b6000819050919050565b6000819050919050565b60006200035b620003556200034f8462000326565b62000330565b62000326565b9050919050565b6000819050919050565b62000377836200033a565b6200038f620003868262000362565b848454620002d0565b825550505050565b600090565b620003a662000397565b620003b38184846200036c565b505050565b5b81811015620003db57620003cf6000826200039c565b600181019050620003b9565b5050565b601f8211156200042a57620003f4816200029e565b620003ff84620002b3565b810160208510156200040f578190505b620004276200041e85620002b3565b830182620003b8565b50505b505050565b600082821c905092915050565b60006200044f600019846008026200042f565b1980831691505092915050565b60006200046a83836200043c565b9150826002028217905092915050565b620004858262000200565b67ffffffffffffffff811115620004a157620004a06200020b565b5b620004ad825462000269565b620004ba828285620003df565b600060209050601f831160018114620004f25760008415620004dd578287015190505b620004e985826200045c565b86555062000559565b601f19841662000502866200029e565b60005b828110156200052c5784890151825560018201915060208501945060208101905062000505565b868310156200054c578489015162000548601f8916826200043c565b8355505b6001600288020188555050505b505050505050565b61245780620005716000396000f3fe6080604052600436106101355760003560e01c8063715018a6116100ab578063a457c2d71161006f578063a457c2d714610416578063a6e158f814610453578063a9059cbb1461046f578063c9a12f34146104ac578063dd62ed3e146104d5578063f2fde38b1461051257610135565b8063715018a61461035757806379cc67901461036e5780637b47ec1a146103975780638da5cb5b146103c057806395d89b41146103eb57610135565b8063312bb8a9116100fd578063312bb8a914610233578063313ce5671461025e57806338dc16771461028957806339509351146102b457806342966c68146102f157806370a082311461031a57610135565b806306fdde031461013a578063095ea7b31461016557806318160ddd146101a257806323b872dd146101cd5780632be8c2a51461020a575b600080fd5b34801561014657600080fd5b5061014f61053b565b60405161015c91906116fa565b60405180910390f35b34801561017157600080fd5b5061018c600480360381019061018791906117b5565b6105cd565b6040516101999190611810565b60405180910390f35b3480156101ae57600080fd5b506101b76105f0565b6040516101c4919061183a565b60405180910390f35b3480156101d957600080fd5b506101f460048036038101906101ef9190611855565b6105fa565b6040516102019190611810565b60405180910390f35b34801561021657600080fd5b50610231600480360381019061022c91906117b5565b610629565b005b34801561023f57600080fd5b50610248610684565b604051610255919061183a565b60405180910390f35b34801561026a57600080fd5b50610273610705565b60405161028091906118c4565b60405180910390f35b34801561029557600080fd5b5061029e61070e565b6040516102ab91906119eb565b60405180910390f35b3480156102c057600080fd5b506102db60048036038101906102d691906117b5565b610884565b6040516102e89190611810565b60405180910390f35b3480156102fd57600080fd5b5061031860048036038101906103139190611a0d565b6108bb565b005b34801561032657600080fd5b50610341600480360381019061033c9190611a3a565b6108cf565b60405161034e919061183a565b60405180910390f35b34801561036357600080fd5b5061036c610917565b005b34801561037a57600080fd5b50610395600480360381019061039091906117b5565b61092b565b005b3480156103a357600080fd5b506103be60048036038101906103b99190611a0d565b61094b565b005b3480156103cc57600080fd5b506103d56109a3565b6040516103e29190611a76565b60405180910390f35b3480156103f757600080fd5b506104006109cd565b60405161040d91906116fa565b60405180910390f35b34801561042257600080fd5b5061043d600480360381019061043891906117b5565b610a5f565b60405161044a9190611810565b60405180910390f35b61046d60048036038101906104689190611a0d565b610ad6565b005b34801561047b57600080fd5b50610496600480360381019061049191906117b5565b610be3565b6040516104a39190611810565b60405180910390f35b3480156104b857600080fd5b506104d360048036038101906104ce91906117b5565b610c06565b005b3480156104e157600080fd5b506104fc60048036038101906104f79190611a91565b610c1c565b604051610509919061183a565b60405180910390f35b34801561051e57600080fd5b5061053960048036038101906105349190611a3a565b610ca3565b005b60606003805461054a90611b00565b80601f016020809104026020016040519081016040528092919081815260200182805461057690611b00565b80156105c35780601f10610598576101008083540402835291602001916105c3565b820191906000526020600020905b8154815290600101906020018083116105a657829003601f168201915b5050505050905090565b6000806105d8610d26565b90506105e5818585610d2e565b600191505092915050565b6000600254905090565b600080610605610d26565b9050610612858285610ef7565b61061d858585610f83565b60019150509392505050565b80610633336108cf565b1015610674576040517f08c379a000000000000000000000000000000000000000000000000000000000815260040161066b90611b7d565b60405180910390fd5b61067f3383836105fa565b505050565b60003073ffffffffffffffffffffffffffffffffffffffff166370a08231336040518263ffffffff1660e01b81526004016106bf9190611a76565b602060405180830381865afa1580156106dc573d6000803e3d6000fd5b505050506040513d601f19601f820116820180604052508101906107009190611bb2565b905090565b60006012905090565b60606000600367ffffffffffffffff81111561072d5761072c611bdf565b5b60405190808252806020026020018201604052801561076057816020015b606081526020019060019003908161074b5790505b5090506040518060400160405280601881526020017f312e204845415254204f4620434f5552414745203d2035300000000000000000815250816000815181106107ad576107ac611c0e565b5b60200260200101819052506040518060400160405280601281526020017f20322e2054654d20664c614b6553203d203100000000000000000000000000008152508160018151811061080257610801611c0e565b5b6020026020010181905250604051806060016040528060218152602001612401602191398160028151811061083a57610839611c0e565b5b60200260200101819052506040518060600160405280602281526020016123df602291398160038151811061087257610871611c0e565b5b60200260200101819052508091505090565b60008061088f610d26565b90506108b08185856108a18589610c1c565b6108ab9190611c6c565b610d2e565b600191505092915050565b6108cc6108c6610d26565b826111f9565b50565b60008060008373ffffffffffffffffffffffffffffffffffffffff1673ffffffffffffffffffffffffffffffffffffffff168152602001908152602001600020549050919050565b61091f6113c6565b6109296000611444565b565b61093d82610937610d26565b83610ef7565b61094782826111f9565b5050565b80610955336108cf565b1015610996576040517f08c379a000000000000000000000000000000000000000000000000000000000815260040161098d90611b7d565b60405180910390fd5b6109a033826111f9565b50565b6000600560009054906101000a900473ffffffffffffffffffffffffffffffffffffffff16905090565b6060600480546109dc90611b00565b80601f0160208091040260200160405190810160405280929190818152602001828054610a0890611b00565b8015610a555780601f10610a2a57610100808354040283529160200191610a55565b820191906000526020600020905b815481529060010190602001808311610a3857829003601f168201915b5050505050905090565b600080610a6a610d26565b90506000610a788286610c1c565b905083811015610abd576040517f08c379a0000000000000000000000000000000000000000000000000000000008152600401610ab490611d12565b60405180910390fd5b610aca8286868403610d2e565b60019250505092915050565b60018110158015610ae8575060048111155b610b27576040517f08c379a0000000000000000000000000000000000000000000000000000000008152600401610b1e90611d7e565b60405180910390fd5b60006006600083815260200190815260200160002054905060008111610b82576040517f08c379a0000000000000000000000000000000000000000000000000000000008152600401610b7990611dea565b60405180910390fd5b80610b8c336108cf565b1015610bcd576040517f08c379a0000000000000000000000000000000000000000000000000000000008152600401610bc490611b7d565b60405180910390fd5b610bdf33610bd96109a3565b83610f83565b5050565b600080610bee610d26565b9050610bfb818585610f83565b600191505092915050565b610c0e6113c6565b610c18828261150a565b5050565b6000600160008473ffffffffffffffffffffffffffffffffffffffff1673ffffffffffffffffffffffffffffffffffffffff16815260200190815260200160002060008373ffffffffffffffffffffffffffffffffffffffff1673ffffffffffffffffffffffffffffffffffffffff16815260200190815260200160002054905092915050565b610cab6113c6565b600073ffffffffffffffffffffffffffffffffffffffff168173ffffffffffffffffffffffffffffffffffffffff1603610d1a576040517f08c379a0000000000000000000000000000000000000000000000000000000008152600401610d1190611e7c565b60405180910390fd5b610d2381611444565b50565b600033905090565b600073ffffffffffffffffffffffffffffffffffffffff168373ffffffffffffffffffffffffffffffffffffffff1603610d9d576040517f08c379a0000000000000000000000000000000000000000000000000000000008152600401610d9490611f0e565b60405180910390fd5b600073ffffffffffffffffffffffffffffffffffffffff168273ffffffffffffffffffffffffffffffffffffffff1603610e0c576040517f08c379a0000000000000000000000000000000000000000000000000000000008152600401610e0390611fa0565b60405180910390fd5b80600160008573ffffffffffffffffffffffffffffffffffffffff1673ffffffffffffffffffffffffffffffffffffffff16815260200190815260200160002060008473ffffffffffffffffffffffffffffffffffffffff1673ffffffffffffffffffffffffffffffffffffffff168152602001908152602001600020819055508173ffffffffffffffffffffffffffffffffffffffff168373ffffffffffffffffffffffffffffffffffffffff167f8c5be1e5ebec7d5bd14f71427d1e84f3dd0314c0f7b2291e5b200ac8c7c3b92583604051610eea919061183a565b60405180910390a3505050565b6000610f038484610c1c565b90507fffffffffffffffffffffffffffffffffffffffffffffffffffffffffffffffff8114610f7d5781811015610f6f576040517f08c379a0000000000000000000000000000000000000000000000000000000008152600401610f669061200c565b60405180910390fd5b610f7c8484848403610d2e565b5b50505050565b600073ffffffffffffffffffffffffffffffffffffffff168373ffffffffffffffffffffffffffffffffffffffff1603610ff2576040517f08c379a0000000000000000000000000000000000000000000000000000000008152600401610fe99061209e565b60405180910390fd5b600073ffffffffffffffffffffffffffffffffffffffff168273ffffffffffffffffffffffffffffffffffffffff1603611061576040517f08c379a000000000000000000000000000000000000000000000000000000000815260040161105890612130565b60405180910390fd5b61106c838383611660565b60008060008573ffffffffffffffffffffffffffffffffffffffff1673ffffffffffffffffffffffffffffffffffffffff168152602001908152602001600020549050818110156110f2576040517f08c379a00000000000000000000000000000000000000000000000000000000081526004016110e9906121c2565b60405180910390fd5b8181036000808673ffffffffffffffffffffffffffffffffffffffff1673ffffffffffffffffffffffffffffffffffffffff16815260200190815260200160002081905550816000808573ffffffffffffffffffffffffffffffffffffffff1673ffffffffffffffffffffffffffffffffffffffff168152602001908152602001600020600082825401925050819055508273ffffffffffffffffffffffffffffffffffffffff168473ffffffffffffffffffffffffffffffffffffffff167fddf252ad1be2c89b69c2b068fc378daa952ba7f163c4a11628f55a4df523b3ef846040516111e0919061183a565b60405180910390a36111f3848484611665565b50505050565b600073ffffffffffffffffffffffffffffffffffffffff168273ffffffffffffffffffffffffffffffffffffffff1603611268576040517f08c379a000000000000000000000000000000000000000000000000000000000815260040161125f90612254565b60405180910390fd5b61127482600083611660565b60008060008473ffffffffffffffffffffffffffffffffffffffff1673ffffffffffffffffffffffffffffffffffffffff168152602001908152602001600020549050818110156112fa576040517f08c379a00000000000000000000000000000000000000000000000000000000081526004016112f1906122e6565b60405180910390fd5b8181036000808573ffffffffffffffffffffffffffffffffffffffff1673ffffffffffffffffffffffffffffffffffffffff1681526020019081526020016000208190555081600260008282540392505081905550600073ffffffffffffffffffffffffffffffffffffffff168373ffffffffffffffffffffffffffffffffffffffff167fddf252ad1be2c89b69c2b068fc378daa952ba7f163c4a11628f55a4df523b3ef846040516113ad919061183a565b60405180910390a36113c183600084611665565b505050565b6113ce610d26565b73ffffffffffffffffffffffffffffffffffffffff166113ec6109a3565b73ffffffffffffffffffffffffffffffffffffffff1614611442576040517f08c379a000000000000000000000000000000000000000000000000000000000815260040161143990612352565b60405180910390fd5b565b6000600560009054906101000a900473ffffffffffffffffffffffffffffffffffffffff16905081600560006101000a81548173ffffffffffffffffffffffffffffffffffffffff021916908373ffffffffffffffffffffffffffffffffffffffff1602179055508173ffffffffffffffffffffffffffffffffffffffff168173ffffffffffffffffffffffffffffffffffffffff167f8be0079c531659141344cd1fd0a4f28419497f9722a3daafe3b4186f6b6457e060405160405180910390a35050565b600073ffffffffffffffffffffffffffffffffffffffff168273ffffffffffffffffffffffffffffffffffffffff1603611579576040517f08c379a0000000000000000000000000000000000000000000000000000000008152600401611570906123be565b60405180910390fd5b61158560008383611660565b80600260008282546115979190611c6c565b92505081905550806000808473ffffffffffffffffffffffffffffffffffffffff1673ffffffffffffffffffffffffffffffffffffffff168152602001908152602001600020600082825401925050819055508173ffffffffffffffffffffffffffffffffffffffff16600073ffffffffffffffffffffffffffffffffffffffff167fddf252ad1be2c89b69c2b068fc378daa952ba7f163c4a11628f55a4df523b3ef83604051611648919061183a565b60405180910390a361165c60008383611665565b5050565b505050565b505050565b600081519050919050565b600082825260208201905092915050565b60005b838110156116a4578082015181840152602081019050611689565b60008484015250505050565b6000601f19601f8301169050919050565b60006116cc8261166a565b6116d68185611675565b93506116e6818560208601611686565b6116ef816116b0565b840191505092915050565b6000602082019050818103600083015261171481846116c1565b905092915050565b600080fd5b600073ffffffffffffffffffffffffffffffffffffffff82169050919050565b600061174c82611721565b9050919050565b61175c81611741565b811461176757600080fd5b50565b60008135905061177981611753565b92915050565b6000819050919050565b6117928161177f565b811461179d57600080fd5b50565b6000813590506117af81611789565b92915050565b600080604083850312156117cc576117cb61171c565b5b60006117da8582860161176a565b92505060206117eb858286016117a0565b9150509250929050565b60008115159050919050565b61180a816117f5565b82525050565b60006020820190506118256000830184611801565b92915050565b6118348161177f565b82525050565b600060208201905061184f600083018461182b565b92915050565b60008060006060848603121561186e5761186d61171c565b5b600061187c8682870161176a565b935050602061188d8682870161176a565b925050604061189e868287016117a0565b9150509250925092565b600060ff82169050919050565b6118be816118a8565b82525050565b60006020820190506118d960008301846118b5565b92915050565b600081519050919050565b600082825260208201905092915050565b6000819050602082019050919050565b600082825260208201905092915050565b60006119278261166a565b611931818561190b565b9350611941818560208601611686565b61194a816116b0565b840191505092915050565b6000611961838361191c565b905092915050565b6000602082019050919050565b6000611981826118df565b61198b81856118ea565b93508360208202850161199d856118fb565b8060005b858110156119d957848403895281516119ba8582611955565b94506119c583611969565b925060208a019950506001810190506119a1565b50829750879550505050505092915050565b60006020820190508181036000830152611a058184611976565b905092915050565b600060208284031215611a2357611a2261171c565b5b6000611a31848285016117a0565b91505092915050565b600060208284031215611a5057611a4f61171c565b5b6000611a5e8482850161176a565b91505092915050565b611a7081611741565b82525050565b6000602082019050611a8b6000830184611a67565b92915050565b60008060408385031215611aa857611aa761171c565b5b6000611ab68582860161176a565b9250506020611ac78582860161176a565b9150509250929050565b7f4e487b7100000000000000000000000000000000000000000000000000000000600052602260045260246000fd5b60006002820490506001821680611b1857607f821691505b602082108103611b2b57611b2a611ad1565b5b50919050565b7f496e73756666696369656e742062616c616e6365000000000000000000000000600082015250565b6000611b67601483611675565b9150611b7282611b31565b602082019050919050565b60006020820190508181036000830152611b9681611b5a565b9050919050565b600081519050611bac81611789565b92915050565b600060208284031215611bc857611bc761171c565b5b6000611bd684828501611b9d565b91505092915050565b7f4e487b7100000000000000000000000000000000000000000000000000000000600052604160045260246000fd5b7f4e487b7100000000000000000000000000000000000000000000000000000000600052603260045260246000fd5b7f4e487b7100000000000000000000000000000000000000000000000000000000600052601160045260246000fd5b6000611c778261177f565b9150611c828361177f565b9250828201905080821115611c9a57611c99611c3d565b5b92915050565b7f45524332303a2064656372656173656420616c6c6f77616e63652062656c6f7760008201527f207a65726f000000000000000000000000000000000000000000000000000000602082015250565b6000611cfc602583611675565b9150611d0782611ca0565b604082019050919050565b60006020820190508181036000830152611d2b81611cef565b9050919050565b7f496e76616c69642073656c656374696f6e000000000000000000000000000000600082015250565b6000611d68601183611675565b9150611d7382611d32565b602082019050919050565b60006020820190508181036000830152611d9781611d5b565b9050919050565b7f496e76616c69642063686f696365000000000000000000000000000000000000600082015250565b6000611dd4600e83611675565b9150611ddf82611d9e565b602082019050919050565b60006020820190508181036000830152611e0381611dc7565b9050919050565b7f4f776e61626c653a206e6577206f776e657220697320746865207a65726f206160008201527f6464726573730000000000000000000000000000000000000000000000000000602082015250565b6000611e66602683611675565b9150611e7182611e0a565b604082019050919050565b60006020820190508181036000830152611e9581611e59565b9050919050565b7f45524332303a20617070726f76652066726f6d20746865207a65726f2061646460008201527f7265737300000000000000000000000000000000000000000000000000000000602082015250565b6000611ef8602483611675565b9150611f0382611e9c565b604082019050919050565b60006020820190508181036000830152611f2781611eeb565b9050919050565b7f45524332303a20617070726f766520746f20746865207a65726f20616464726560008201527f7373000000000000000000000000000000000000000000000000000000000000602082015250565b6000611f8a602283611675565b9150611f9582611f2e565b604082019050919050565b60006020820190508181036000830152611fb981611f7d565b9050919050565b7f45524332303a20696e73756666696369656e7420616c6c6f77616e6365000000600082015250565b6000611ff6601d83611675565b915061200182611fc0565b602082019050919050565b6000602082019050818103600083015261202581611fe9565b9050919050565b7f45524332303a207472616e736665722066726f6d20746865207a65726f20616460008201527f6472657373000000000000000000000000000000000000000000000000000000602082015250565b6000612088602583611675565b91506120938261202c565b604082019050919050565b600060208201905081810360008301526120b78161207b565b9050919050565b7f45524332303a207472616e7366657220746f20746865207a65726f206164647260008201527f6573730000000000000000000000000000000000000000000000000000000000602082015250565b600061211a602383611675565b9150612125826120be565b604082019050919050565b600060208201905081810360008301526121498161210d565b9050919050565b7f45524332303a207472616e7366657220616d6f756e742065786365656473206260008201527f616c616e63650000000000000000000000000000000000000000000000000000602082015250565b60006121ac602683611675565b91506121b782612150565b604082019050919050565b600060208201905081810360008301526121db8161219f565b9050919050565b7f45524332303a206275726e2066726f6d20746865207a65726f2061646472657360008201527f7300000000000000000000000000000000000000000000000000000000000000602082015250565b600061223e602183611675565b9150612249826121e2565b604082019050919050565b6000602082019050818103600083015261226d81612231565b9050919050565b7f45524332303a206275726e20616d6f756e7420657863656564732062616c616e60008201527f6365000000000000000000000000000000000000000000000000000000000000602082015250565b60006122d0602283611675565b91506122db82612274565b604082019050919050565b600060208201905081810360008301526122ff816122c3565b9050919050565b7f4f776e61626c653a2063616c6c6572206973206e6f7420746865206f776e6572600082015250565b600061233c602083611675565b915061234782612306565b602082019050919050565b6000602082019050818103600083015261236b8161232f565b9050919050565b7f45524332303a206d696e7420746f20746865207a65726f206164647265737300600082015250565b60006123a8601f83611675565b91506123b382612372565b602082019050919050565b600060208201905081810360008301526123d78161239b565b905091905056fe20342e20464c41434f275320564f4c43414e4943205245564f4c564552203d20373520332e20424c414445204f4620544845204c49474854204d4f4f4e203d20313030a264697066735822122068f88b1b335ebcaf9e9b31e1d95e3e2c7cdbc50dec53bf52b4995f0bf4c66f0d64736f6c63430008120033",
  "linkReferences": {},
  "deployedLinkReferences": {}
}